:100000000C94CF000C94EC000C94EC000C94EC00DD
:100010000C94EC000C94EC000C94EC000C94EC00B0
:100020000C94EC000C94EC000C94EC000C94EC00A0
:100030000C94EC000C94EC000C94EC000C94EC0090
:100040000C94EC000C94EC000C94EC000C94EC0080
:100050000C94EC000C94EC000C94EC000C94EC0070
:100060000C94EC000C94EC004E414E494E4954590E
:10007000494E46CDCCCC3D0AD7233C17B7D1387773
:10008000CC2B329595E6241FB14F0A000020410089
:1000900000C84200401C4620BCBE4CCA1B0E5AAED3
:1000A000C59D7400407A10F35A00A0724E180900E2
:1000B00010A5D4E80000E87648170000E40B5402CD
:1000C0000000CA9A3B000000E1F505000080969808
:1000D00000000040420F000000A086010000001058
:1000E0002700000000E8030000000064000000009A
:1000F000000A00000000000100000000002C76D87B
:1001000088DC674F0823DFC1DFAE59E1B1B796E560
:10011000E3E453C63AE651997696E8E6C28426EBC4
:10012000898C9B62ED407C6FFCEFBC9C9F40F2BAD7
:10013000A56FA5F490055A2AF75C936B6CF9676D6F
:10014000C11BFCE0E40D47FEF520E6B500D0ED90C4
:100150002E0300943577050080841E080000204E91
:100160000A000000C80C333333330F986E1283112A
:1001700041EF8D2114893BE65516CFFEE6DB18D101
:10018000844B381BF77C1D901DA4BBE424203284D3
:10019000725E228100C9F124ECA1E53D2700112403
:1001A0001FBECFEFD8E0DEBFCDBF11E0A0E0B1E0D1
:1001B000ECE3F4E302C005900D92AC36B107D9F739
:1001C00021E0ACE6B1E001C01D92A037B207E1F733
:1001D0000E94B30E0C941C1A0C9400002F923F92B4
:1001E0004F925F926F927F928F929F92AF92BF9247
:1001F000CF92DF92EF92FF920F931F93CF93DF93F3
:10020000CDB7DEB7A4970FB6F894DEBF0FBECDBF53
:100210006B017C012BED3FE049EC50E40E94271478
:100220000E949914072E000C880B990B0E94D11480
:100230002BED3FE049EC50E40E9486159B01AC0198
:10024000C701B6010E94B5136D8B7E8B8F8B988F83
:1002500020E030E0A9010E94221487FF0EC02BEDA0
:100260003FE049EC50E46D897E898F89988D0E942A
:10027000B6136D8B7E8B8F8B988F20E030E0A901B9
:100280006D897E898F89988D0E948115812C912C92
:10029000540118160CF049C180E090E0A0E8BFE3DB
:1002A00089839A83AB83BC83812C912C54011D825A
:1002B000198610E000E08AE0482E87ED582E83E290
:1002C000682E8CE3782E212C312C18C19101412FFE
:1002D000502F6D897E898F89988D0E94B5132B01CF
:1002E0003C01AC019B01B101812F902F0E94B613FC
:1002F0001B01182F092F29813A814B815C81C30191
:10030000B2010E948615698F7A8F8B8F9C8F730143
:100310006201F7FAF094F7F8F094A5019401C7018F
:10032000B6010E9486156D8F7E8F8F8F98A320E077
:1003300030E040E05FE30E94861529813A814B81DD
:100340005C810E94B613A30192010E9486156D8301
:100350007E838F83988720E030E040E05FE3698D03
:100360007A8D8B8D9C8D0E948615A50194010E942B
:10037000B613A70196010E94861569877A878B8735
:100380009C8720E030E040E05FE30E9486152981F1
:100390003A814B815C810E94B613A30192010E94B5
:1003A00086156D877E878F87988B20E030E040E050
:1003B0005FE36D817E818F8198850E948615A501FE
:1003C00094010E94B613A70196010E948615698BBD
:1003D0007A8B8B8B9C8BA50194016D857E858F8597
:1003E00098890E94B613A70196010E94861569A3F9
:1003F0007AA38BA39CA32D813E814F815885CA018E
:10040000B9010E94B613298D3A8D4B8D5C8D0E94E7
:10041000B6136B017C012D853E854F855889CA0135
:10042000B9010E94B6139B01AC01C701B6010E943D
:10043000B6136B017C0129813A814B815C8169890A
:100440007A898B899C890E94B613A30192010E942C
:1004500086159B01AC01C701B6010E94B61320E0CE
:1004600030E040EC50E40E9427149B01AC01C50130
:10047000B4010E94B6134B015C0129853A854B8576
:100480005C85CA01B9010E94B6132D8D3E8D4F8D3A
:1004900058A10E94B6136B017C0129893A894B89C6
:1004A0005C89CA01B9010E94B6139B01AC01C70166
:1004B000B6010E94B61329A13AA14BA15CA10E94EA
:1004C000B61320E030E040EC50E40E9427149B017A
:1004D000AC0169817A818B819C810E94B61369830A
:1004E0007A838B839C839101412F502F6D897E8964
:1004F0008F89988D0E9481151816BCF49101412FA7
:10050000502FC301B2010E94B6137B0189879D83DE
:100510002D893E894F89588D0E94811518160CF43B
:10052000D5CE170119850D81E6CEC501B401A4967B
:100530000FB6F894DEBF0FBECDBFDF91CF911F91F4
:100540000F91FF90EF90DF90CF90BF90AF909F9072
:100550008F907F906F905F904F903F902F90089575
:100560002F923F924F925F926F927F928F929F92C3
:10057000AF92BF92CF92DF92EF92FF920F931F93B1
:10058000CF93DF9300D000D0CDB7DEB72B013C0175
:1005900020E030E0A9010E94221418160CF01AC1C4
:1005A00020E030E040E85FE3C301B2010E94221482
:1005B000882309F40FC120E030E040E85FE3C30185
:1005C000B2010E94221487FD27C12EEA37E441E8D8
:1005D0005FE3C301B2010E948115C12CD12C7601C9
:1005E00087FD14C1212C312C80E889838FE38A8315
:1005F0001EEA87E48C8381E88B830FE304C0182D07
:100600009C82AB820B2D2AE037ED43EA5BE3B1011C
:1006100089819A810E94B6139B01AC0160E070E071
:1006200080E89FE30E9427142AE037ED43E25CE371
:100630000E9486159B01AC010E94B6134B015C0120
:10064000910149815A8160E070E080E89FE30E9457
:1006500027142AE037ED43E25CE30E948615A501EA
:1006600094010E94B613A50194010E94B6134B0198
:100670005C01212F3C814B81502F60E070E080E8CD
:100680009FE30E9427142AE037ED43E25CE30E94D7
:1006900086159B01AC01C501B4010E94B61320E090
:1006A00030E040EC50E40E9427149B01AC01C701EC
:1006B000B6010E94B6136B017C012AE037ED43E2DC
:1006C0005CE3612F7C818B81902F0E94B6134B01DC
:1006D0005C01212E3C808B8189830A83A3019201D6
:1006E000B401C5010E94221418160CF088CF212FE6
:1006F0003C814B81502FC301B2010E94B5134B01C5
:100700005C0120E030E0A9010E94811518160CF070
:1007100064C020E030E040E05FE3C501B4010E9426
:100720008615212F3C814B81502F0E94B6139B01CF
:10073000AC0160E070E080E89FE30E942714A5010F
:1007400094010E9486159B01AC010E94B6132B01F7
:100750003C01212F3C814B81502F60E070E080E80C
:100760009FE30E942714A50194010E948615A3010E
:1007700092010E94B613A30192010E94B6132B01AD
:100780003C01212F3C814B81502FC501B4010E94B7
:10079000B6139B01AC0160E070E080E89FE30E942B
:1007A0002714A50194010E9486159B01AC01C30189
:1007B000B2010E94B61320E030E040EC50E40E9409
:1007C00027149B01AC01C701B6010E94B6136B014F
:1007D0007C0103C0C12CD12C7601C701B6010F905A
:1007E0000F900F900F90DF91CF911F910F91FF907D
:1007F000EF90DF90CF90BF90AF909F908F907F90C1
:100800006F905F904F903F902F90089510E01C8262
:1008100080E88B830FE36BCFA301920160E070E06F
:1008200080E89FE30E9427140E94B0026B017C01C4
:10083000F7FAF094F7F8F094D0CF2F923F924F92BE
:100840005F926F927F928F929F92AF92BF92CF9260
:10085000DF92EF92FF920F931F93CF93DF93CDB769
:10086000DEB72A970FB6F894DEBF0FBECDBF4B019F
:100870005C0120E030E0A9010E94221487FDFCC049
:1008800081E090E098878F8320E030E040E85FE3EC
:10089000C501B4010E94811518160CF4F6C020E0C1
:1008A00030E0A901C501B4010E94811518160CF0B1
:1008B00011C18AE0482E87ED582E83E2682E8CE322
:1008C000782E1B821C821D821E82312C212C1A82C2
:1008D000198230E03A8780E08987A3019201632D75
:1008E000722D8A8599850E94B6136983172F082F68
:1008F0009A83A50194010E9481151816A4F4232D52
:10090000322D4A855985C501B4010E94B5132B01CA
:100910003C01232D322D4A8559850E94B6136983E7
:10092000172F082F9A8320E030E040E05FE3C301F7
:10093000B2010E948615232D322D4A8559850E94C9
:10094000B6139B01AC010E94861520E030E040E820
:100950005FE30E94B6139B01AC01C301B2010E9488
:1009600027149B01AC010E94B6136B017C01232D5F
:10097000322D4A855985632D722D8A8599850E946D
:10098000861520E030E040E85FE30E94B6139B014B
:10099000AC01C301B2010E942714A70196010E9475
:1009A000B613A70196010E94B6136B017C01298141
:1009B000312F402F5A816981712F802F9A810E9497
:1009C000861520E030E040E85FE30E94B6139B010B
:1009D000AC01C301B2010E9427149B01AC01C70105
:1009E000B6010E94B61320E030E040EC50E40E94D3
:1009F00027149B01AC016B817C818D819E810E94BB
:100A0000B6136B837C838D839E833980212E0A8766
:100A10009A819987232D312F402F592FC501B40179
:100A20000E94811518160CF458CF2F813885B90112
:100A3000330F880B990B0E94D1142B813C814D817F
:100A40005E810E9486152A960FB6F894DEBF0FBE0F
:100A5000CDBFDF91CF911F910F91FF90EF90DF906D
:100A6000CF90BF90AF909F908F907F906F905F904E
:100A70004F903F902F900895B7FAB094B7F8B09484
:100A80002FEF3FEF38872F83FFCEA501940160E061
:100A900070E080E89FE30E9427140E941D044B0130
:100AA0005C012F813885B901330F880B990B0E94A7
:100AB000D1146B017C01A50194016BED7FE089EC01
:100AC0009FE30E94B5139B01AC01C701B6010E94D0
:100AD0008615B9CF1B821C821D821E82A6CFCF93A2
:100AE000DF93CDB7DEB7E2970FB6F894DEBF0FBE47
:100AF000CDBF92E3E0E0F1E0DE01119601900D92AE
:100B00009A95E1F7309B3EC0319B1DC0329B51C08E
:100B1000339B66C034997BC090E020916D01FC014D
:100B2000EE0FFF1FEE0FFF1FE80FF91F99E1299F3E
:100B3000E00DF11D112481E090E08C0F9D1FE80F66
:100B4000F91F848116C090E020916D01FC01EE0F29
:100B5000FF1FEE0FFF1FE80FF91F99E1299FE00D1E
:100B6000F11D112481E090E08C0F9D1FE80FF91F0B
:100B70008181E2960FB6F894DEBF0FBECDBFDF9144
:100B8000CF91089590E020916D01FC01EE0FFF1FC1
:100B9000EE0FFF1FE80FF91F89E1289FE00DF11DFF
:100BA000112481E090E08C0F9D1FE80FF91F8081D8
:100BB000E0CF90E020916D01FC01EE0FFF1FEE0FE2
:100BC000FF1FE80FF91F99E1299FE00DF11D112486
:100BD00081E090E08C0F9D1FE80FF91F8281C9CF43
:100BE00090E020916D01FC01EE0FFF1FEE0FFF1F43
:100BF000E80FF91F99E1299FE00DF11D112481E013
:100C000090E08C0F9D1FE80FF91F8381B2CF80E029
:100C1000B0CF5A989BB19F70282F207F922B9BB901
:100C20005B9AEFE9FFE03197F1F700C000005B98B5
:100C30009BB19F70F0E18F9F90011124892F822B2F
:100C40008BB95B9A8FE99FE00197F1F700C0000034
:100C50005B9808955A9A9BB19F70282F207F922B02
:100C60009BB95B9AEFE9FFE03197F1F700C0000014
:100C70005B989BB19F70F0E18F9F90011124892FA9
:100C8000822B8BB95B9A8FE99FE00197F1F700C047
:100C900000005B980895CF93DF93D0EC811101C0E1
:100CA000D0E88D2F0E940906C0E180E20E942A064A
:100CB000C150D9F78D2FDF91CF910C9409062F9257
:100CC0003F924F925F926F927F928F929F92AF92DC
:100CD000BF92CF92DF92EF92FF920F931F93CF9329
:100CE000DF93CDB7DEB761970FB6F894DEBF0FBEC6
:100CF000CDBF6D877E878F87988B29833A834B83FF
:100D00005C8320E030E040E85FE30E94221487FD2E
:100D1000CEC12EEA37E441E85FE36D857E858F859D
:100D200098890E94811587FD64C31EEA07E481E863
:100D3000382E9FE3292EE12CF12C8FE38D83412C5B
:100D4000512C20E8622E2FE3722E80E8898B8FE3EE
:100D5000898704C01A2D0B2D3C2C2D2CA301920148
:100D600069817A818B819C810E94861597014989CE
:100D700059850E9427142AE037ED43E25CE30E9484
:100D800086156D837E838F8398872AE037ED43EA4B
:100D90005BE3B701898999850E94B6136B017C01D9
:100DA00020E030E040E05FE36D817E818F819885B7
:100DB0000E948615A30192010E94B61329813A81EF
:100DC0004B815C810E948615A70196010E94271421
:100DD0002AE037ED43E25CE30E9486154B015C019B
:100DE00020E030E040E05FE30E948615A30192011D
:100DF0000E94B61329813A814B815C810E9486153D
:100E0000A70196010E9427142AE037ED43E25CE334
:100E10000E9486156B017C01A30192010E94B6130A
:100E200029813A814B815C810E948615212F302FC8
:100E3000432D522D0E9427142AE037ED43E25CE354
:100E40000E94861569877A878B879C87A501940104
:100E5000C501B4010E94B6132D813E814F81588592
:100E60000E94B6134B015C01A7019601C701B601B0
:100E70000E94B6139B01AC01C501B4010E94B613D8
:100E80009B01AC0169857A858B859C850E94B61390
:100E900020E030E040EC50E40E9427149B01AC01BC
:100EA000C301B2010E94B6132B013C012AE037EDC9
:100EB00043E25CE3612F702F832D922D0E94B613C5
:100EC0005B016C01E12EF02E398A29869B01AC0171
:100ED0006D857E858F8598890E94811587FF3ACF21
:100EE000212F302F432D522D6D857E858F8598893A
:100EF0000E94B5134B015C0120E030E0A9010E9483
:100F0000811518160CF0B8C0A301920169817A818D
:100F10008B819C810E948615212F302F432D522DCD
:100F20000E942714A50194010E9486156D877E8773
:100F30008F87988B20E030E040E05FE3C501B4018B
:100F40000E948615212F302F432D522D0E94B6135B
:100F50006B017C0120E030E040E05FE36D857E8541
:100F60008F8598890E948615A30192010E94B6136D
:100F700029813A814B815C810E948615A7019601E7
:100F80000E942714A50194010E9486156D837E831B
:100F90008F83988720E030E040E05FE30E94861571
:100FA000A30192010E94B61329813A814B815C8191
:100FB0000E948615A70196010E942714A50194019D
:100FC0000E9486156B017C01A30192010E94B61359
:100FD00029813A814B815C810E94861569837A83DD
:100FE0008B839C83212F302F432D522DC501B401BB
:100FF0000E94B6139B01AC0169817A818B819C812F
:101000000E942714A50194010E9486154B015C01E2
:101010002D813E814F815885CA01B9010E94B613C6
:101020002D853E854F8558890E94B61369837A8342
:101030008B839C83A7019601C701B6010E94B6135A
:101040009B01AC0169817A818B819C810E94B613DE
:101050009B01AC01C501B4010E94B61320E030E051
:1010600040EC50E40E9427149B01AC01C301B20183
:101070000E94B6132B013C01C301B20161960FB669
:10108000F894DEBF0FBECDBFDF91CF911F910F91BE
:10109000FF90EF90DF90CF90BF90AF909F908F9098
:1010A0007F906F905F904F903F902F90089524EA2B
:1010B00030E74DE75FE36D857E858F8598890E94D7
:1010C000221418160CF4A2C114EA00E76DE7362EBC
:1010D0007FE3272EE12CF12C8FE38D83412C512CC3
:1010E000E0E86E2EEFE37E2E80E8898B8FE3898720
:1010F00004C01A2D0B2D3C2C2D2CA30192016981CB
:101100007A818B819C810E94861597014989598536
:101110000E9427142AE037ED43E25CEB0E9486151B
:101120006D837E838F8398872AE037ED43EA5BE304
:10113000B701898999850E94B5136B017C0120E074
:1011400030E040E05FE36D817E818F8198850E9471
:101150008615A30192010E94B61329813A814B8121
:101160005C810E948615A70196010E9427142AE03F
:1011700037ED43E25CEB0E9486154B015C0120E0F9
:1011800030E040E05FE30E948615A30192010E94D7
:10119000B61329813A814B815C810E948615A70193
:1011A00096010E9427142AE037ED43E25CEB0E948F
:1011B00086156B017C01A30192010E94B61329815F
:1011C0003A814B815C810E948615212F302F432D5F
:1011D000522D0E9427142AE037ED43E25CEB0E9477
:1011E000861569877A878B879C87A5019401C5013D
:1011F000B4010E94B6132D813E814F8158850E9413
:10120000B6134B015C01A7019601C701B6010E940C
:10121000B6139B01AC01C501B4010E94B6139B013A
:10122000AC0169857A858B859C850E94B61320E088
:1012300030E040EC50E40E9427149B01AC01C30154
:10124000B2010E94B6132B013C012AE037ED43E2C4
:101250005CE3612F702F832D922D0E94B5135B01EB
:101260006C01E12EF02E398A29869B01AC016D8537
:101270007E858F8598890E94221418160CF039CF2C
:10128000212F302F432D522D6D857E858F85988996
:101290000E94B5134B015C0120E030E0A9010E94DF
:1012A0002214882309F4E8CEA301920169817A818E
:1012B0008B819C810E948615212F302F432D522D2A
:1012C0000E942714A50194010E94861569877A87D8
:1012D0008B879C8720E030E040E05FE3C501B401EC
:1012E0000E948615212F302F432D522D0E94B613B8
:1012F0006B017C0120E030E040E05FE369857A85A6
:101300008B859C850E948615A30192010E94B613CD
:1013100029813A814B815C810E948615A701960143
:101320000E942714A50194010E9486156D837E8377
:101330008F83988720E030E040E05FE30E948615CD
:10134000A30192010E94B61329813A814B815C81ED
:101350000E948615A70196010E942714A5019401F9
:101360000E9486156D877E878F87988BA3019201D7
:101370000E94B61329813A814B815C810E948615B7
:101380006B017C01212F302F432D522DC501B4015B
:101390000E94B6139B01AC01C701B6010E9427143D
:1013A000A50194010E9486156B017C012D813E816F
:1013B0004F815885CA01B9010E94B61329853A8523
:1013C0004B855C850E94B6134B015C012D853E85E3
:1013D0004F855889CA01B9010E94B6139B01AC011F
:1013E000C501B4010E94B6139B01AC01C701B6014F
:1013F00033CE10E000E0F0E83F2EAFE32A2E412C80
:10140000512CB0E86B2EBFE37B2E6ACD10E000E0DC
:1014100030E8332E4FE3242E412C512C50E8652E1A
:101420005FE3752E2DCF9DE8980F923088F08336BC
:1014300079F0853669F08C3659F098E8980F93303A
:1014400038F021E090E0813709F020E0822F089504
:1014500081E090E00895CF92DF92FF920F931F9367
:10146000CF93DF936C0180E00E944B0680E80E94DE
:101470000906F601C081CC2309F442C0F12CD0E06A
:1014800010E000E00FC08C2F0E942A06DF5FF3946B
:101490000F2D10E0F601E00FF11FC081CC2381F188
:1014A000D03170F5C03739F18C2F0E94130A892B87
:1014B00051F3F601E00FF11F8181883221F7C33724
:1014C00009F440C0C33609F440C0C43709F440C031
:1014D000C53609F440C0CC3609F440C0CA3709F417
:1014E00040C0C93709F440C0C837B9F0C13759F610
:1014F000EDE4F1E014C080E70E942A06DF3041F4F9
:10150000DF91CF911F910F91FF90DF90CF900895C1
:1015100089E60E942A06DE5FBACFE7E4F1E0808127
:101520008F010F5F1F4FD03118F00AC0D03141F04A
:101530000E942A06DF5FF80181918F018111F6CFA9
:10154000F394A5CFECE3F1E0EACFE2E4F1E0E7CFFA
:10155000E8E4F1E0E4CFE2E3F1E0E1CFE7E3F1E05A
:10156000DECFEBE3F1E0DBCFE1E4F1E0D8CF2F9287
:101570003F924F925F926F927F928F929F92AF9223
:10158000BF92CF92DF92EF92FF920F931F93CF9370
:10159000DF93CDB7DEB7CA56D1090FB6F894DEBFD8
:1015A0000FBECDBF5C016B0110926C01FC0130805D
:1015B000332009F4E4C088248A94982CF12CE12C7F
:1015C00010E000E09E012F5F3F4F3901B9016095A7
:1015D0007095AB967FAF6EAFAB9750E2252E29C0CA
:1015E000FEE23F1659F120E7321609F403C1260145
:1015F000400E511E832D0E94130AA9969FAF8EAFF5
:10160000A997892B09F43FC0F3E68F1691043CF4A7
:101610002FEF821A920AF301E80DF91D30823FEF95
:10162000E31AF30AF501EE0DFF1D3080332009F4B3
:10163000C2C0E32DE053FF0B3A9790F6F501EE0D93
:10164000FF1DD601A00FB11F7F01EA18FB08CD01D5
:101650008C199D094191642F6053770B6A30710595
:1016600010F04E3211F44D93EFCF8C010F5F1F4FEE
:101670008C0D9D1DFC012082F1E0EF1AF10826017E
:10168000400E511ECCCF38E2331609F4E7C089E290
:10169000381609F403C1632D032C000C770B85E683
:1016A00091E00E941516892B09F4B9CFFFEF8F1630
:1016B0009F0609F457C02FEF821A920AD301A80D92
:1016C000B91DF2011BC04F3209F4E5C083E090E080
:1016D0004E3529F52DE2321609F4BDC03EE533162C
:1016E00069F16BE2361609F4B6C040830E5F1F4FF6
:1016F000218232966A167B0609F41CC1AB968EAC29
:101700009FACAB978A0E9B1E4E914D3209F48BC055
:10171000D4F64A3209F4BFC04B3209F484C02DE23A
:10172000321609F4B3C023150CF0A9C07FE23716B6
:1017300051F08EE53812D9CF90E080E023E030E020
:101740008217930794F62601400E511EE3E68E168B
:1017500091040CF064CF94012F5F3F4FA9963FAFE7
:101760002EAFA997A996EEADFFADA997E60DF71D8F
:101770003082A9968EAC9FACA99751CF6201F60139
:101780001082C659DF4F0FB6F894DEBF0FBECDBF33
:10179000DF91CF911F910F91FF90EF90DF90CF904D
:1017A000BF90AF909F908F907F906F905F904F9081
:1017B0003F902F9008956FEF86169606F9F29E01DE
:1017C0002F5F3F4FD4011196A20FB31FF601E00F18
:1017D000F11F90E28E918083918332962A173B0706
:1017E000C9F70E5F1F4F880C991C080D191DC00EFC
:1017F000D11EC5CFD601A00FB11FE4E5F1E083E310
:1018000001C0890198012F5F3F4F8D938191811114
:10181000F8CF0E5F1F4F2C0D3D1DF90120822601D0
:10182000400E511EFCCE3DE2331699F0331554F4B0
:101830008FE2381609F487CF9EE5391256CF81E042
:1018400090E07CCF6AE2361609F47DCF7BE2371256
:101850004CCF81E090E021E030E072CF63E6861665
:1018600091043CF47FEF871A970AF301E80DF91D04
:10187000308280916C018F5F80936C01D0CE3AE210
:10188000331609F460CF6BE236122FCF90E080E080
:1018900021E030E055CF82E090E01CCF9FEF891629
:1018A000990609F43EC0D301A80DB91D8C91883268
:1018B00009F45CC0F201AB962EAD3FADAB972A0F99
:1018C0003B1FA9963FAF2EAFA99780830E5F1F4F96
:1018D000218232962F01A615B70519F18E91883213
:1018E00051F780916C0181113BC0A9968EAC9FACE1
:1018F000A99731E0831A9108A0F0F301E80DF91DD2
:101900003080832D0E94130A892B09F488CEC801E8
:101910000196A9968EAC9FACA99772E0871A9108A0
:1019200013C080E00E94130A892B41F488248A9412
:10193000982C75CE2601400E511E14CFC801019679
:10194000312C88248A94982CF20130820E5F1F4F2C
:101950008C0D9D1DFC0120822601400E511E5FCE84
:1019600080916C01815080936C01BFCFA9969FAE8E
:101970008EAEA997B6CF4F925F926F927F928F9261
:101980009F92AF92BF92CF92DF92EF92FF920F930E
:101990001F93CF93DF93CDB7DEB766970FB6F8945A
:1019A000DEBF0FBECDBF6D837E838F83988720E01F
:1019B00030E0A9010E94221487FDC3C120E030E07D
:1019C00040E85FE3298B3A8B4B8B5C8B20E030E067
:1019D000A9016D817E818F8198850E94811519866C
:1019E0001A861B861C8618160CF08AC16AE0462EE1
:1019F00067ED562E63E2662E6CE3762ED12CE12C39
:101A0000F12CC12C7BC0D701C601B695A79597953F
:101A100087952FED39E547E35FE5281B390B4A0B26
:101A20005B0B29833A834B835C8320E030E040E00A
:101A30005FE3C701B6010E94861529813A814B8177
:101A40005C810E94861529813A814B815C810E94CC
:101A500086159B01AC0160E070E080EC9FE30E9482
:101A6000B51329813A814B815C810E9486156B01F7
:101A70007C01A5019401C501B4010E94B6134B017C
:101A80005C01AC019B016D857E858F8598890E94E4
:101A9000B613A50194010E94B6134B015C01A70186
:101AA0009601C301B2010E9486159B01AC01C501DC
:101AB000B4010E94B61320E030E040EC50E40E94F4
:101AC00027149B01AC0169857A858B859C850E94D2
:101AD000B61369877A878B879C87DD88EE88F12E1D
:101AE000C02E2D2D3E2D412F502F6D817E818F8157
:101AF00098850E94811518160CF002C12D2D3E2DDF
:101B00004F2D5C2DC301B2010E94B6136D8B7E8BED
:101B1000182F092F2D813E814F8158850E948115F4
:101B20001816B4F42D2D3E2D4F2D5C2D6D817E8128
:101B30008F8198850E94B5132B013C012D2D3E2DE0
:101B40004F2D5C2D0E94B6136D8B7E8B182F092FA5
:101B50002D2D3E2D4F2D5C2D6D2D7E2D8F2D9C2DF1
:101B60000E9486159B01AC0160E070E080E89FE375
:101B70000E94B5134B015C0120E030E0A9010E94F6
:101B8000221420E030E0A9011816B4F5D501C401F3
:101B9000B695A795979587952FED39E547E35FE5CE
:101BA000281B390B4A0B5B0B29833A834B835C83DD
:101BB00020E030E040E05FE3C501B4010E948615FB
:101BC00029813A814B815C810E94861529813A8165
:101BD0004B815C810E9486159B01AC0160E070E046
:101BE00080EC9FE30E94B51329813A814B815C818F
:101BF0000E9486159B01AC01C301B2010E948615AB
:101C00006D877E878F87988B20E030E040E05FE330
:101C1000C301B2010E9486152D2D3E2D4F2D5C2D46
:101C20000E94B6139B01AC010E9486159B01AC017A
:101C300060E070E080E89FE30E94B5136B017C01D7
:101C400020E030E0A9010E94221420E030E0A90148
:101C5000181684F5D701C601B695A795979587956F
:101C60004FED842E49E5942E47E3A42E4FE5B42E84
:101C7000881A990AAA0ABB0A20E030E040E05FE334
:101C8000C701B6010E948615A50194010E94861520
:101C9000A50194010E9486159B01AC0160E070E0F3
:101CA00080EC9FE30E94B513A50194010E94861564
:101CB0009B01AC01C301B2010E9486154B015C017E
:101CC0002D893E89412F502F6D897E89812F902F3C
:101CD0000E9486159B01AC0160E070E080E89FE304
:101CE0000E94B5136B017C0120E030E0A9010E9445
:101CF000221418160CF487CEC12CD12C7601B9CE43
:101D000029893A894B895C8969857A858B859C8587
:101D10000E94861566960FB6F894DEBF0FBECDBF43
:101D2000DF91CF911F910F91FF90EF90DF90CF90B7
:101D3000BF90AF909F908F907F906F905F904F90EB
:101D400008952D813E814F81588550582D833E83C3
:101D50004F83588780E090E0A0E8BFEB898B9A8B97
:101D6000AB8BBC8B33CECF93DF93CDB7DEB7C85EE2
:101D7000D2400FB6F894DEBF0FBECDBF8AB18C6FD4
:101D80008AB984B18F6184B985B18F6185B987B112
:101D9000807E87B988B18F6188B92FEF30E742E044
:101DA000215030404040E1F700C0000083E30E9432
:101DB000090682E30E94090688E20E9409068CE077
:101DC0000E94090686E00E94090681E00E94090639
:101DD0008FE39FE10197F1F700C0000081E00E94CE
:101DE0000906AFE3BFE11197F1F700C00000C75A41
:101DF000DD4F1882C955D240CE01875A9D4F0E94AF
:101E00002B0A312CFE01EF56FE4FCB52DD4FF983EA
:101E1000E883C55DD2409E0123543D4FC952DD4F3A
:101E200039832883C75DD240AE014F5F5F4F5A01AF
:101E3000CE014196C752DD4F99838883C95DD24058
:101E400088248394912CD9015796CB51DD4FB983C7
:101E5000A883C55ED240F401E21BF30BC951DD4FEC
:101E6000F983E883C75ED240F12CE12C85B18F6104
:101E700085B925B1C4010E2C01C0880F0A94EAF778
:101E8000182F1095822F812385B98FE39FE1019749
:101E9000F1F700C000008E2D0E946F0595B19F6183
:101EA00095B9811108C0FFEFEF1AFF0A25E0E2168D
:101EB000F104E1F6D9CF082F9FE7A8E3B1E09150F4
:101EC000A040B040E1F700C0000085B18F6185B946
:101ED00085B1812385B9EFE3FFE13197F1F700C0C8
:101EE00000008E2D0E946F0595B19F6195B9081372
:101EF000BBCF09C085B18F6185B9EFE3FCE93197AC
:101F0000F1F700C00000F12CE12C85B18F6185B99B
:101F100025B1C4010E2C01C0880F0A94EAF7809500
:101F2000822385B98FE99FE00197F1F700C0000097
:101F30008E2D0E946F058111DDCF85B18F6185B92E
:101F40009FEFE91AF90AA5E0EA16F104F1F6033465
:101F500009F41FC1023609F433C10D3609F452C128
:101F60000D3301F1802F0E94130A892B09F0EFC075
:101F7000E2E6E31588F081E0830DE9E5F2E0EC0F9D
:101F8000FD1FE30DF11D0083E9E5F2E0EC0FFD1FFD
:101F9000E80FF11D1082382ECE01875A9D4F0E9406
:101FA0002B0A62CF332009F45FCF88ECCB52DD4F90
:101FB000A881B981C55DD2401D928A95E9F7BE011D
:101FC0006F567E4FCE01875A9D4F0E94B70A80916F
:101FD0006C018111CAC1CC24CA94DC2C9E012F56FD
:101FE0003E4F7901032DCD51DD4F99828882C35E2A
:101FF000D240D7011C91112309F46FC03FEFE31ABF
:10200000F30A1032B1F3412F4053550B4A305105BA
:1020100008F43BC11E3209F438C1612F012E000CB7
:10202000770B85E691E00E941516892B09F413C100
:10203000F6013197C552DD4FF983E883CB5DD2407D
:10204000F601EE0FFF1FEE0FFF1FEA0DFB1D2080B4
:10205000318042805380C552DD4F28813981CB5D6C
:10206000D240220F331F220F331FCF51DD4F398350
:102070002883C15ED2402A0D3B1DC152DD4F3983FA
:102080002883CF5DD240D9016D907D908D909C903A
:102090001D3209F4ABC10CF039C11A3209F4C2C1C6
:1020A0001B3209F0BBC1A4019301C201B1010E941E
:1020B000B613C152DD4FE881F981CF5DD240608314
:1020C000718382839383C552DD4FC880D980CB5DF5
:1020D000D240D7011C91111191CF302ECD51DD4F3F
:1020E00088809980C35ED24060E070E0CB01D7FC6D
:1020F0000BC0F601EE0FFF1FEE0FFF1FEA0DFB1DD9
:10210000608171818281938121E1F50111922A958B
:10211000E9F7850125E040E10E94F31581E00E9486
:102120004B0680EC0E9409060CC00E942A06C7528A
:10213000DD4F28813981C95DD2402017310709F46C
:1021400093CED8018D918D018111EFCF8DCEB2E666
:10215000B31508F421CFE9E5F2E0EC0FFD1FE30D24
:10216000F11D008381E0830DE9E5F2E0EC0FFD1F36
:10217000E80FF11D833609F4E4C23394339488E206
:102180008083E9E5F2E0EC0FFD1FE30DF11D108205
:1021900003CFC75ADD4F1882C955D24010926C0147
:1021A00081E00E9409068FE39FE10197F1F700C0EB
:1021B0000000CE01875A9D4F0E942B0A312C54CE2D
:1021C000332009F4E9CE91E0391659F0832D90E0DF
:1021D000E8E5F2E0EC0FFD1FE80FF91F208128323F
:1021E00011F03A94CECFA7E5B2E0AC0FBD1F8A0F35
:1021F0009B1FFC0180810E94130A892B91F33A9462
:102200003A94BFCF80916D0191E0892780936D0151
:1022100081E00E944B0680EC0E94090680916D01CE
:10222000882309F46CC08DE40E942A0682E30E9490
:102230002A06FFEF24E33CE0F15020403040E1F774
:1022400000C0000081E00E944B06CE01875A9D4FDE
:102250000E942B0A09CE812F0E94130A892B09F4B0
:10226000C8CE3601660C771C660C771CF501E60DAE
:10227000F71D20803180428053801356183108F4B6
:10228000F9C0F1E0CF1AD108B4CEC701FE01E35482
:10229000FD4FCB51DD4F88809980C55ED240C9513A
:1022A000DD4F68817981C75ED24004C08E169F06DB
:1022B00009F499C07C01AB014E0F5F1F1193DC0143
:1022C0001C910196212F2F7D89F7EDEBF2E0EC0FA9
:1022D000FD1F4E0F5F1FDA011C92BFEFCB1ADB0A06
:1022E000CF010E941116F601EE0FFF1FEE0FFF1F28
:1022F000EA0DFB1D60837183828393837ACE8DE424
:102300000E942A0681E30E942A0693CF1F3209F415
:10231000A0C01E3509F082C020E030E0A901C20152
:10232000B1010E942214882309F4BCC120E030E0EE
:10233000A901C401B3010E9422148111B8C160E057
:1023400070E0CB01CF51DD4FE881F981C15ED24011
:10235000EA0DFB1D6083718382839383C552DD4F39
:10236000C880D980CB5DD24044CE80916C01882357
:1023700011F1B2E6B315F8F0A9E5B2E0AC0FBD1F5C
:10238000A30DB11D91E0930DE9E5F2E0EC0FFD1F07
:10239000E90FF11D29E203C0933669F09F5F392EE2
:1023A0002D93119280916C01815080936C018091EA
:1023B0006C018111F1CFCE01875A9D4F0E942B0AEB
:1023C00088ECCB52DD4FE881F981C55DD240119296
:1023D0008A95E9F7BE016F567E4FCE01875A9D4F11
:1023E0000E94B70AF8CD47E150E06FCFA2019101FA
:1023F000C401B3010E94B513C152DD4FA881B98158
:10240000CF5DD2406D937D938D939C931397C5526E
:10241000DD4FC880D980CB5DD240EBCDB2E0CB1A86
:10242000D108E7CDA4019301C201B1010E94861534
:10243000C152DD4FE881F981CF5DD2406083718365
:1024400082839383C552DD4FC880D980CB5DD24053
:10245000D0CD20E030E0A901C201B1010E942214D8
:10246000882309F46CCFA2019101C401B3010E9439
:10247000271468CFE12F110FFF0BEF5BFD4E0C947B
:10248000AF13401341113213411141114111411158
:102490004111411126134111411141114111D31232
:1024A0004111C71285124111411141117912AD122A
:1024B000591220E030E040E85FEBC201B1010E9418
:1024C000221487FD0BC020E030E040E85FE3C2014A
:1024D000B1010E94811518160CF01AC160E070E07D
:1024E000CB01F501E60DF71D608371838283938331
:1024F00080CDC201B1010E941D04F501E60DF71D5A
:10250000608371838283938374CDA20191016BED0B
:102510007FE089EC9FE30E94B5130E94EE00C55254
:10252000DD4F688379838A839B83CB5DD24020E033
:1025300030E0A9010E942214882381F2C201B10176
:102540000E94EE00C552DD4F288139814A815B81AE
:10255000CB5DD2400E942714C4CF20E030E040E899
:102560005FEBC201B1010E94221487FD0BC020E085
:1025700030E040E85FE3C201B1010E948115181606
:102580000CF0A5C06BED7FE089EC9FE3AACFC20100
:10259000B1010E94EE00F501E60DF71D6083718325
:1025A0008283938326CD20E030E0A901C201B101EE
:1025B0000E94221418160CF091CFD201C101B695D9
:1025C000A795979587952FED39E547E35FE5281B9C
:1025D000390B4A0B5B0BC552DD4F288339834A8385
:1025E0005B83CB5DD24020E030E040E05FE3C2019E
:1025F000B1010E948615C552DD4F288139814A817B
:102600005B81CB5DD2400E948615C552DD4F28818B
:1026100039814A815B81CB5DD2400E9486159B0146
:10262000AC0160E070E080EC9FE30E94B513C552FE
:10263000DD4F288139814A815B81CB5DD2400E9488
:102640008615A20191010E9486154BCFC201B101EE
:102650000E94B002F501E60DF71D6083718382834D
:102660009383C7CC20E030E0A901C201B1010E94F0
:102670002214811123C060E070E080E89FE331CF35
:10268000A20191016BED7FE089EC9FE30E94B513FD
:102690000E94EE00F501E60DF71D608371838283D1
:1026A0009383A7CC60E070E080E89FE34BCEA2016B
:1026B0009101C401B3010E945F0644CEA2019101C1
:1026C00064E578EF8DE290E40E945F060ACF22E78E
:1026D00039EF4FE75FE3C201B1010E94811587FF27
:1026E000FDCE22E739EF4FE75FEBC201B1010E9457
:1026F0002214181654F5C201B1010E94BB0C9B01B3
:10270000AC016BED7FE089EC9FE30E94B513E9CE4D
:1027100022E739EF4FE75FE3C201B1010E94811563
:1027200087FF30CF22E739EF4FE75FEBC201B101FE
:102730000E942214181674F4C201B1010E94BB0C4D
:10274000D0CE108283E6382E27CC6BED7FE089E473
:1027500090E4C7CE6BED7FE089EC9FEBC2CEEE0F2D
:10276000FF1F0590F491E02D09945058BB27AA272C
:102770000E94CD130C9447150E94391538F00E9421
:10278000401520F039F49F3F19F426F40C943615C7
:102790000EF4E095E7FB0C943015E92F0E945815D4
:1027A00058F3BA17620773078407950720F079F486
:1027B000A6F50C947A150EF4E0950B2EBA2FA02DE9
:1027C0000B01B90190010C01CA01A0011124FF27DE
:1027D000591B99F0593F50F4503E68F11A16F040D9
:1027E000A22F232F342F4427585FF3CF46953795D8
:1027F0002795A795F0405395C9F77EF41F16BA0B9D
:10280000620B730B840BBAF09150A1F0FF0FBB1F4A
:10281000661F771F881FC2F70EC0BA0F621F731F93
:10282000841F48F4879577956795B795F7959E3FF0
:1028300008F0B0CF9395880F08F09927EE0F979581
:10284000879508950E940C1508F481E008950E9470
:102850003B140C9447150E94401558F00E943915FE
:1028600040F029F45F3F29F00C94301551110C947D
:102870007B150C9436150E94581568F39923B1F313
:10288000552391F3951B550BBB27AA276217730796
:10289000840738F09F5F5F4F220F331F441FAA1F2A
:1028A000A9F335D00E2E3AF0E0E832D091505040E6
:1028B000E695001CCAF72BD0FE2F29D0660F771F94
:1028C000881FBB1F261737074807AB07B0E809F07A
:1028D000BB0B802DBF01FF2793585F4F3AF09E3FFF
:1028E000510578F00C9430150C947B155F3FE4F3A0
:1028F000983ED4F3869577956795B795F7959F5F42
:10290000C9F7880F911D9695879597F90895E1E08D
:10291000660F771F881FBB1F621773078407BA07EC
:1029200020F0621B730B840BBA0BEE1F88F7E09547
:1029300008950E94A0146894B1110C947B15089519
:102940000E94601588F09F5798F0B92F9927B751CA
:10295000B0F0E1F0660F771F881F991F1AF0BA9543
:10296000C9F714C0B13091F00E947A15B1E0089512
:102970000C947A15672F782F8827B85F39F0B93F04
:10298000CCF3869577956795B395D9F73EF49095F6
:102990008095709561957F4F8F4F9F4F0895E89474
:1029A00009C097FB3EF490958095709561957F4F97
:1029B0008F4F9F4F9923A9F0F92F96E9BB27939545
:1029C000F695879577956795B795F111F8CFFAF455
:1029D000BB0F11F460FF1BC06F5F7F4F8F4F9F4F86
:1029E00016C0882311F096E911C0772321F09EE8E4
:1029F000872F762F05C0662371F096E8862F70E04A
:102A000060E02AF09A95660F771F881FDAF7880F23
:102A10009695879597F90895990F0008550FAA0B79
:102A2000E0E8FEEF16161706E807F907C0F01216E1
:102A30001306E407F50798F0621B730B840B950BE4
:102A400039F40A2661F0232B242B252B21F4089539
:102A50000A2609F4A140A6958FEF811D811D0895D6
:102A600097F99F6780E870E060E008959FEF80EC41
:102A7000089500240A9416161706180609060895E4
:102A800000240A9412161306140605060895092E4A
:102A90000394000C11F4882352F0BB0F40F4BF2BB9
:102AA00011F460FF04C06F5F7F4F8F4F9F4F0895F9
:102AB00057FD9058440F551F59F05F3F71F04795EF
:102AC000880F97FB991F61F09F3F79F087950895D4
:102AD000121613061406551FF2CF4695F1DF08C0F3
:102AE000161617061806991FF1CF86957105610510
:102AF00008940895E894BB2766277727CB0197F9B8
:102B000008950E940C1508F48FEF08950E949915FE
:102B10000C9447150E94391538F00E94401520F09A
:102B2000952311F00C9430150C94361511240C9447
:102B30007B150E94581570F3959FC1F3950F50E0D7
:102B4000551F629FF001729FBB27F00DB11D639F5F
:102B5000AA27F00DB11DAA1F649F6627B00DA11D05
:102B6000661F829F2227B00DA11D621F739FB00DAB
:102B7000A11D621F839FA00D611D221F749F33271B
:102B8000A00D611D231F849F600D211D822F762FB4
:102B90006A2F11249F5750409AF0F1F088234AF091
:102BA000EE0FFF1FBB1F661F771F881F91505040FD
:102BB000A9F79E3F510580F00C9430150C947B15BD
:102BC0005F3FE4F3983ED4F3869577956795B79584
:102BD000F795E7959F5FC1F7FE2B880F911D96959E
:102BE000879597F90895EF920F931F93CF93DF93F3
:102BF000E80134E047FD34E1042E000C550B57FF8B
:102C000003C0519541955109E32E022F242FAE01A7
:102C10000E942016CE01DF91CF911F910F91EF906E
:102C20000895662777270C947F17FC0181918617FA
:102C300021F08823D9F7992708953197CF01089576
:102C4000A9E0B0E0E6E2F6E10C94DC196A01F22EAC
:102C5000B02E102FFBE3AF2EA01608F41BE31F5F6E
:102C6000012F27E0AE014F5F5F4F0E94CF18BC01DC
:102C70008981982F9970913009F43FC09BE2E1FC63
:102C800004C09E2D9170E0FC3AC05E2D5071E82F7B
:102C9000E87083FF46C084E0911101C083E0EF2D0E
:102CA000E81B8F1508F0E0E0D6018E2F20E25523B7
:102CB00051F1992329F0D6019C93C60101966C012C
:102CC00096012D5F3F4FE2FE24C08EE4D6018C9327
:102CD00091E411969C93119712968C93D9018E2FA3
:102CE00090E281111BC0E20FF32FF11D10828EEFD5
:102CF0009FEF2996ECE00C94F8199DE2C6CF90E284
:102D0000C4CF2D9381508111FCCFCE0ED11CE0E0B9
:102D1000D0CF8EE6D6018C9391E6DBCF9D93815088
:102D2000E0CF482F447082FF3DC084E0911101C084
:102D300083E08F1510F4EF2DE81BD6018E2F20E2D3
:102D4000552309F1992329F0D6019C93C6010196D8
:102D50006C0196012D5F3F4FE2FE1BC089E4D60156
:102D60008C938EE411968C93119786E412968C9333
:102D7000D9018E2F90E2882309F4B5CF9D9381501D
:102D8000FACF2D9381508111FCCFCE0ED11CE0E003
:102D9000D9CF89E6D6018C938EE611968C93119744
:102DA00086E6E4CF9B0177FF02C030E020E0A1E09F
:102DB000B0E0911102C0B0E0A0E0F9013196AE0F91
:102DC000BF1F8B2C912CBB2009F461C05401EFEF85
:102DD000AE1ABE0AAA0DBB1DFA161B0619F014F096
:102DE0004F2D4A1B511188C0E3FC59C07601A42F16
:102DF000B0E2A1114FC0C40ED11C992309F45BC0ED
:102E000040E0D6011196F60190836D01552309F437
:102E100048C0012F060F9A81582F507184FF03C0BC
:102E2000913309F4015010160CF047C0093008F036
:102E300008E0EEE2FE2E5B01A01AB1088501919434
:102E4000819491082F3F320729F4D601FC92F601B4
:102E500031966F016217730794F1021713077CF51F
:102E6000DB01A21BB30BAA24A394B12CAC0EBD1E94
:102E7000AA0DBB1D11968C9121503109D6011196D6
:102E800028153905F4F0F60180836D01DBCFB12CF4
:102E9000A12CA0CFF701B1937F01A150AACF91112E
:102EA000B0CFD601942F50E302C05D9391509111A1
:102EB000FCCFC40ED11C40E0ACCF01E0BACF80E320
:102EC000DBCF6217730731F4963388F4953311F42E
:102ED000552369F0F6018083FD01842F90E2811172
:102EE00008C0A40FB11D1C9290E080E002CF81E3E6
:102EF000F1CF91938150F3CF911183CF8ACFB0E07E
:102F0000A0E0E5E8F7E10C94DC195C017B016115B8
:102F1000710519F0DB018D939C9385010F5F1F4FA5
:102F2000F501D0818D2F90E00E94A7196C01892BAB
:102F3000B9F5DD32B9F50F5F1F4FD5011196DC9160
:102F4000C1E05801F1E0AF1AB10843E050E060E79A
:102F500070E0C5010E94B019892B69F5680182E013
:102F6000C80ED11C45E050E06BE670E0C6010E943F
:102F7000B019892B21F4680197E0C90ED11CE11426
:102F8000F10419F0D701CD92DC9260E070E080E8A6
:102F90009FEFC111FFC060E070E080E89FE7FAC0DA
:102FA0005801BBCFDB3229F485010E5F1F4FF501BD
:102FB000D181C0E0C6CF43E050E068E670E0C501D3
:102FC0000E94B019892BE9F0F80110E000E020E040
:102FD00030E0A9015F01B0ED8B2E8D0E89E08815E0
:102FE000C8F19C2E689491F88C2F8870C2FF16C08F
:102FF000811102C00F5F1F4F3196D501DC91C92DA1
:10300000E9CFE114F10429F00E5F1F4FF70111839E
:10301000008360E070E080EC9FE7BCC0882311F083
:1030200001501109A5E0B0E00E94CB199B01AC0151
:10303000220F331F441F551F280D311D411D511DE7
:10304000283999E93907490799E15907A8F2C66073
:103050009C2ED2CFAEEF8A1206C0C3FD3CC09C2E80
:10306000689493F8C9CFDF7DD534A9F580818D327E
:1030700039F4C061DF011296818162E070E006C020
:10308000DF018B32C1F3119661E070E080535D0186
:10309000A61AB70A8A30F8F4E0E8CE16ECE0DE06AD
:1030A0005CF4B601660F771F660F771FC60ED71E3A
:1030B000CC0CDD1CC80ED11C5D01FFEFAF1ABF0A9E
:1030C0008C9180538A30A8F1C4FF03C0D194C1947D
:1030D000D1080C0D1D1DC1FF09C0E114F10431F030
:1030E00081E0A81AB108D701AD92BC92CA01B9011A
:1030F0000E94CF14C370C33009F490584B015C0197
:1031000020E030E0A9010E942214882309F440C085
:10311000CFE9D0E017FF05C0119501951109C7E867
:10312000D0E06E01B8E1CB1AD10880E2E82EF12C94
:103130000FC0D501B1CFFE01259135914591549134
:103140000E191F09C501B4010E9486154B015C01CF
:10315000D501C4010E151F0574F72497F594E79463
:10316000CC16DD06A9F78A2F880F8B2F881F8F3F7B
:1031700049F020E030E0A901C501B4010E94221409
:10318000811106C082E290E090936F0180936E01FE
:10319000C501B401CDB7DEB7ECE00C94F8192830C6
:1031A00008F027E03327DA01990F311D87FD916080
:1031B00000966105710539F432602E5F3D9330E36E
:1031C0002A95E1F708959F3F30F080387105610539
:1031D00009F03C5F3C5F3D93913008F08068911DA1
:1031E000DF93CF931F930F93FF92EF92192F987F46
:1031F0009695E92F96959695E90FFF27E350FF4F97
:1032000099273327EE24FF24A701E70105900894AE
:10321000079428F4360FE71EF81E491F511D660F4C
:10322000771F881F991F0694A1F70590079428F42B
:10323000E70EF81E491F561FC11D770F881F991FE3
:10324000661F0694A1F70590079428F4F80E491F0D
:10325000561FC71FD11D880F991F661F771F069421
:10326000A1F70590079420F4490F561FC71FD81FD8
:10327000990F661F771F881F0694A9F784911095F0
:10328000177041F0D695C79557954795F794E794F1
:103290001A95C1F7E3EAF0E068941590159135911D
:1032A0006591959105907FE27395E118F10A430BC2
:1032B000560BC90BD009C0F7E10CF11E431F561F76
:1032C000C91FD01D7EF4703311F48A95E6CFE894BF
:1032D000015030F0080F0AF40027021708F4202FDD
:1032E0002395022F7A3328F079E37D932A95E9F725
:1032F00010C07D932A9589F6069497956795379522
:1033000017951794E118F10A430B560BC90BD00916
:1033100098F023957E9173957A3308F070E37C934F
:103320002013B8F77E9170617D9330F0839571E33F
:103330007D9370E32A95E1F71124EF90FF900F91B0
:103340001F91CF91DF91992787FD90950895911155
:103350000C94C819803219F089508550C8F7089527
:10336000FB01DC014150504088F08D9181341CF00C
:103370008B350CF4805E659161341CF06B350CF478
:10338000605E861B611171F3990B0895881BFCCF59
:103390009927882708950E940D1AA59F900DB49F24
:1033A000900DA49F800D911D112408952F923F929E
:1033B0004F925F926F927F928F929F92AF92BF9245
:1033C000CF92DF92EF92FF920F931F93CF93DF93F1
:1033D000CDB7DEB7CA1BDB0B0FB6F894DEBF0FBE4E
:1033E000CDBF09942A88398848885F846E847D849B
:1033F0008C849B84AA84B984C884DF80EE80FD809D
:103400000C811B81AA81B981CE0FD11D0FB6F89412
:10341000DEBF0FBECDBFED010895A29FB001B39FE7
:10342000C001A39F700D811D1124911DB29F700DCD
:0C343000811D1124911D0895F894FFCF18
:10343C00303132333435363738392B2D2A2F7363EC
:10344C0074656C43622E3D6D7030313233343536D9
:10345C0037383928295E667A7978646743622E3D5D
:10346C006D7065787028006C6E28006173696E2829
:10347C000061636F7328006174616E280073717250
:10348C00742800332E3134313539323635333538F2
:0C349C0039373933002B2D2A2F5E000039
:00000001FF
